:060000000200090200727B
:10006200E4F50AF50BF50CF50DF50EF50F02000699
:030006000201589C
:10007200C0E0C0D0E50C450D6019050AE4B50A02DE
:10008200050BE50EB50A0CE50FB50B07750801C2A5
:1000920090C291D0D0D0E032C2949001F41206986E
:1000A20075820112055B1209FEAC82AD83AEF0FFD0
:1000B200C004C005C006C00790C3CA75F082743E72
:1000C200120837AC82AD83AEF0FFE58124FCF581E6
:1000D200749AC0E014C0E07423C0E07442C0E08CA3
:1000E200828D838EF0EF120803AC82AD83AEF0FFF7
:1000F200E58124FCF581C004C005C006C00790500C
:100102000075F0C37447120A7EAC82AD83AEF0FF75
:10011200E58124FCF5818C828D838EF0EF120A0A30
:10012200751EE8751F03120958751E64751F0012AB
:10013200080EAE82AF83D294C3EE9403EF940050C4
:100142000490000122C3EE9406EF94004004900054
:10015200032290000222E4FEFFFCFDFAFBF518F5F3
:1001620019F516F517F510F511D2AFD2A875880159
:10017200D2A2D2A3C2A0C2A1D2A5D2A6C007C00653
:10018200C005C004C003C0021206A5751D00758219
:10019200001207BB900BF075F080120765751D0AFF
:1001A2007582021207BB900C0575F0801207657507
:1001B2001D0A7582041207BB900C1975F080120794
:1001C20065751D0A7582061207BB900C2D75F080AD
:1001D20012076512009A858212858313751D6A754E
:1001E20082021207BBA912743029F582120714D0B9
:1001F20002D003D004D005D006D007C291A29192BA
:1002020090E4F509F50CF50DC2973084030202D291
:100212007401B5160614B5170280030202D29000CB
:100222000AC007C006C005C004C003C00212069877
:10023200D002D003D004D005D006D0073084030208
:1002420002D2751D0A758206C007C006C005C00429
:10025200C003C0021207BB900C3675F0801207650E
:1002620012009A858214858315751D6A758206129D
:1002720007BBA914743029F582120714D002D003E7
:10028200D004D005D006D007E512B51407E513B5A2
:10029200150280118512108513118514128515130C
:1002A200750901D297751D6A758202C007C006C022
:1002B20005C004C003C0021207BBA812743028F59F
:1002C20082120714D002D003D004D005D006D00782
:1002D200208047BE0144BF004190000AC005C0040F
:1002E200C003C002120698D002D003D004D0052069
:1002F2008028751001751100751D6A758204C0058C
:10030200C004C003C0021207BB758231120714D0A9
:1003120002D003D004D005750900208137BC013416
:10032200BD003190000AC003C002120698D002D06C
:1003320003208120751002751100751D6A758204F3
:10034200C003C0021207BB758232120714D002D05A
:1003520003750900208227BA0124BB002190000AFC
:10036200120698208218751003751100751D6A75A2
:1003720082041207BB7582331207147509002083A9
:100382001B7401B5180614B519028002800E900084
:100392000A120698208305750901D297E5097003B0
:1003A2000204B3109703020428C3E5129510E51363
:1003B2009511502DE510C39512F50EE5119513F523
:1003C2000F751D0A7582061207BB900C4D75F080E1
:1003D200120765750C01E4F50DF50AF50BD2908054
:1003E20045C3E5109512E5119513502DE512C395FD
:1003F20010F50EE5139511F50F751D0A758206129B
:1004020007BB900C6275F080120765750C02E4F56B
:100412000DF50AF50BD291800D750801E4F50CF586
:100422000D750A01F50BE50A450B604BC3E50E9409
:1004320002E50F940040407401B50C0614B50D029C
:100442008002800A0512E4B5121A0513801674029E
:10045200B50C06E4B50D0280028009151274FFB5D1
:1004620012021513751D6A7582021207BBA8127457
:100472003028F582120714E508603C8510128511B8
:1004820013751D6A7582021207BBA810743028F515
:1004920082120714751D0A7582061207BB900C772B
:1004A20075F080120765E4F509F508F50CF50D8085
:1004B20006C291A2919290A280E433FE7F00A281B3
:1004C200E433FC7D00A282E433FA7B00A283E433AE
:1004D200F518751900A284E433F51675170090001B
:1004E20001C007C006C005C004C003C002120698BE
:0F04F200D002D003D004D005D006D00702020CF0
:100BF0002A2A456C657661746F7220436F6E747239
:100C00006F6C2A2A0043757272656E7420666C6F71
:100C10006F72203A2031204600546172676574205B
:100C200020666C6F6F72203A20202046005374615A
:100C3000747573203A00464C4F4F522064657465BA
:100C400063742E2E2E20202020202020005374613B
:100C5000747573203A676F657320202075702E2E8F
:100C60002E00537461747573203A676F6573206446
:100C70006F776E2E2E2E00537461747573203A2098
:0C0C80002020617272697665212121003C
:10050100AF827E007D008E04EC2CFEC2A09000051F
:10051100C007C006C005120698D005D006D0078FC7
:10052100035303807C00EB4C24FF92A1900005C093
:1005310007C006C005120698D2A0900005120698C1
:10054100D005D006D00730A2034306018F04EC2C5E
:10055100FF0DBD080040AF8E8222AF82C2A375821B
:1005610001C007120501D007BF010A7582E012051B
:1005710001AF8280087582A0120501AF8253070F77
:100581008F067F00758200C007C006120501AD828B
:10059100D006D0077C00ED4FF582EC4EF583D2A357
:1005A100C2A0C2A122D2A5D2A6120693C2A512064A
:1005B10093C2A622C2A5D2A6120693D2A502069381
:1005C100A20092A5D2A6120693C2A6020693D2A6B3
:1005D100120693A2A592D7C2A6120693A2D722AF62
:1005E100827E008F05ED2DFFA2D792A5D2A6C0076E
:1005F100C006120693C2A6120693D006D0070EBEFD
:10060100080040DF0205CF7F00D2A57E008F05EDF7
:100611002DFDD2A6C006C005120693D005D006A2B4
:10062100A5E4334DFFC2A6C007C006120693D0064B
:10063100D0070EBE080040D58F8222AF82C00712BC
:1006410005A6D0078F821205E0851A821205E08582
:100651001B821205E00205B5AF82C0071205A6D0C4
:10066100078F82C0071205E0851C821205E0120582
:10067100B51205A6D00774014FF5821205E01206E6
:1006810008AF82D200C0071205C11205B5D0078F8D
:1006910082227F05DFFE22AD827E027FE6DFFEDE63
:1006A100FADDF6227582A81207EB75823F1207EB7D
:1006B1007582D31207EB7582001207EB7582401227
:1006C10007EB7582A11207EB7582C81207EB7582E1
:1006D100DA1207EB7582121207EB7582811207EBB2
:1006E10075827F1207EB7582A41207EB7582A61241
:1006F10007EB7582D51207EB7582801207EB7582C5
:100701008D1207EB7582141207EB7582AF1207EB9E
:10071100020790AF82BF0A01227E00EF24E0F51E9E
:10072100EE34FFF51F90000512093BAE82AF837DC9
:10073100008D037C00EB2EFBEC3FFCEB248CF5825F
:10074100EC340CF583E493F582C007C006C00512B2
:1007510007F7D005D006D0070DBD050040D375823F
:10076100000207F7AD82AE83AFF08D828E838FF0EA
:10077100120B41FC60188C820DBD00010EC007C038
:1007810006C005120714D005D006D00780DC227FF1
:1007910000751D008F82C0071207BBD0077E007550
:1007A1008200C007C0061207F7D006D0070EBE8030
:1007B1000040EC0FBF080040D822AF82AE1D74028A
:1007C1002EF51DAE1D740F5EF582C007C00612071F
:1007D100EBD006EEC4540FFE74104EF5821207EBF7
:1007E100D00774B04FF5820207EB85821B751A00A2
:1007F10075827802063C85821B751A4075827802E3
:02080100063CB3
:100C8C00000000000000002F000000070007001407
:100C9C007F147F14242A7F2A122313086462364996
:100CAC005522500005030000001C22410000412287
:100CBC001C0014083E081408083E08080000A06038
:100CCC0000080808080800606000002010080402F2
:100CDC003E5149453E00427F400042615149462108
:100CEC0041454B311814127F1027454545393C4A74
:100CFC0049493001710905033649494936064949C4
:100D0C00291E003636000000563600000814224119
:100D1C000014141414140041221408020151090681
:100D2C00324959513E7C1211127C7F494949363E59
:100D3C00414141227F4141221C7F494949417F0960
:100D4C000909013E4149497A7F0808087F00417F23
:100D5C0041002040413F017F081422417F40404028
:100D6C00407F020C027F7F0408107F3E4141413ED0
:100D7C007F090909063E4151215E7F091929464622
:100D8C004949493101017F01013F4040403F1F204B
:100D9C0040201F3F4038403F63140814630708701D
:100DAC0008076151494543007F41410055AA55AAA6
:100DBC00550041417F000402010204404040404084
:100DCC00000305000020545454787F4844443838BC
:100DDC0044444420384444487F3854545418087EC2
:100DEC0009010218A4A4A47C7F0804047800447DA3
:100DFC0040004080847D007F1028440000417F40EB
:100E0C00007C041804787C08040478384444443882
:100E1C00FC2424241818242418FC7C0804040848F6
:100E2C0054545420043F4440203C4040207C1C201F
:100E3C0040201C3C4030403C44281028441CA0A0BE
:100E4C00A07C4464544C4400107C82000000FF00E1
:0B0E5C000000827C100000060909065F
:10080300A8811818C6B2E7C60209A57A10E4FBFC52
:10081300E58225E0F582E58333F583EB33FBEC33A7
:10082300FCEB951EF5F0EC951F4006FCABF0438204
:1008330001DADD221208DABC0003020A36EF60FA9D
:1008430030D502B2D1E583B4FF03020A4CE582B48A
:10085300FF03020A4C258340072482400B020A3619
:100863002483145003020A4CF582EA8DF0A4A8F005
:10087300EA8EF0A428F8E435F0F9EB8DF0A428E92A
:1008830035F0F9E433CA8FF0A429F9EA35F0FAEB2D
:10089300F88EF0A429F9EA35F0FAE433FBEC8DF095
:1008A300A429F9EA35F0FAE43BFBE88FF0A42AFA2D
:1008B300EB35F0FBE433CCFD8EF0A42AFAEB35F0F4
:1008C300FBE43CFCED8FF0A42BFBEC35F0FC20E7C4
:1008D30003120908020A15AA82AB83A2F73392D145
:1008E300F5826002D2F7ACF0E58124F9F8E6FD0861
:1008F300E6FE0886F008E6A2F73392D5F583600298
:05090300D2F7AFF02265
:06003800E478FFF6D8FD9C
:100908007804EC7011E58224F8500AF582E4C9CA2B
:10091800CBFCD8EF22EC7820058220E713D58201A2
:1009280022C3E933F9EA33FAEB33FBEC33FCD8EAB8
:0309380015822203
:100016007900E94400601B7A00900E67780175A0AC
:1000260000E493F2A308B8000205A0D9F4DAF27549
:02003600A0FF29
:10093B00E582851EF0A4C582C0F0851FF0A4D0F01F
:10094B0025F0C583851EF0A42583F58322E51E457E
:10095B001F60467A01E51E25E0F51EE51F334012A8
:10096B00F51FE582951EE583951F40030A80E6C3BC
:10097B00E51F13F51FE51E13F51EC3E582951EF546
:10098B00F0E583951F4005F58385F082C3E51F13C2
:10099B00F51FE51E13F51EDAE1221208DA7900E5E0
:1009AB0083B58202800D5003120A64E583C39582DE
:1009BB00120B70E5D0C465D020E117EA2DFAEB3E9F
:1009CB00FBEC3FFC50097401120B70EC4480FC02F1
:1009DB000A15C3EA9DFAEB9EFBEC9FFC500FC3E498
:1009EB0099F9E49AFAE49BFBE49CFCB2D112090856
:0309FB00020A15D8
:10003E007800E84400600A790175A000E4F309D85D
:10004E00FC7800E84400600C7900900001E4F0A315
:04005E00D8FCD9FAF7
:1009FE00E4AC83AB82FAF9748E020B667F8E120B17
:100A0E00B9F58385F08222B98003EA13B34010EA68
:100A1E002401FAE43BFBE43CFC50047C800582BCE0
:100A2E00000EBB000BBA0008E4F5F0F583F5822248
:100A3E00A2D1E582138CF092F78B838A8222E4F5A1
:100A4E0083F58275F080F4A2D11322E4F583F5824A
:100A5E0075F0C0747F22E582C583F582A2D133A2E0
:100A6E00D592D11392D5ECCFFCEBCEFBEACDFA2288
:100A7E001208DA30D502B2D1BF0009BC0003020A57
:100A8E0059020A4CBC0003020A36E583B4FF0BE59B
:100A9E0082B4FF03020A59020A36E582B4FF03024A
:100AAE000A4CC395835007247F400B020A362480DC
:100ABE00145003020A4CF582C3ED9AEE9BEF9C4054
:100ACE00111582C3EA33F9EB33FAEC33FBE433FC52
:100ADE008005E4CCCBCAF9C08275F019C3E99DEA52
:100AEE009EEB9FEC9400D5F002802D400EE99DF90F
:100AFE00EA9EFAEB9FFBEC9400FCC3B3E833F8E5F7
:100B0E008233F582E58333F583C3E933F9EA33FAA9
:100B1E00EB33FBEC33FC80C4B3E4F938FAE43582F2
:100B2E00FBE43583FCD082500405827C80120908D8
:030B3E00020A2D7B
:0D000900758120120BB3E582600302000632
:100B410020F71430F6148883A88220F507E6A883DD
:100B510075830022E280F7E49322E022FCABF0AA45
:100B610083A982749EC2D1F582120908020A156016
:100B710040F82582500274FFF582E824F8501ECC1B
:100B8100CBCAF9E4CC24F85014CBCAF9E4CB24F84D
:100B9100500BCAF9E4CA24F85003790022240860F2
:100BA10010F8C3EC13FCEB13FBEA13FAE913F9D8C1
:100BB100F122758200227F9E120BDE30D103020AE0
:100BC10036C3EF9582500974FFF5F0F583F5822263
:100BD1007900120B7089828A838BF0EC22AA82AB96
:0F0BE10083A2F73392D1F5826002D2F7ACF022F3
:00000001FF
